:1000000071C0000081C000007FC000007DC0000002
:100010007BC0000079C0000077C0000075C0000000
:1000200073C0000071C000006FC000006DC0000010
:100030006BC0000069C0000067C0000065C0000020
:1000400063C0000061C000005FC000005DC0000030
:100050005BC0000059C0000057C0000055C0000040
:1000600053C0000035C100004FC000004DC000006B
:100070004BC0000049C0000047C0000045C0000060
:1000800043C0000041C000003FC000003DC0000070
:100090003BC0000039C0000037C0000035C0000080
:1000A00033C0000031C000002FC000002DC0000090
:1000B0002BC0000029C0000027C0000025C00000A0
:1000C00023C0000021C000001FC000001DC00000B0
:1000D0001BC0000019C0000017C0000015C00000C0
:1000E00013C0000011241FBECFEFD1E2DEBFCDBF91
:1000F00000E00CBF22E0A0E0B2E001C01D92A13000
:10010000B207E1F79CD0F4C07BCF87B1826087B99A
:1001100081B18FEF81B90895982F907F92B992B1F4
:100120009E7F92B992B19D7F92B992B1946092B93B
:10013000EFE3FCE93197F1F700C0000092B19B7F3B
:1001400092B9EFE3FCE93197F1F700C00000F0E16C
:100150008F9FC001112482B982B18E7F82B982B192
:100160008D7F82B982B1846082B98FE39CE9019767
:10017000F1F700C0000082B18B7F82B9EFE3FCE9A8
:100180003197F1F700C000000895982F907F92B941
:1001900092B1916092B992B19D7F92B992B19460FF
:1001A00092B9EFE3FCE93197F1F700C0000092B19A
:1001B0009B7F92B9EFE3FCE93197F1F700C00000B3
:1001C000F0E18F9FC001112482B982B1816082B9B0
:1001D00082B18D7F82B982B1846082B98FE39CE95C
:1001E0000197F1F700C0000082B18B7F82B9EFE385
:1001F000FCE93197F1F700C00000089582E08CDF40
:1002000088E28ADF8EE088DF81E086DF80E884CFC5
:100210000895E1ECF0E0808188698083E2ECF0E011
:10022000808186608083E0ECF0E080818260808362
:100230001092C5008FEC8093C4007894089565DF18
:10024000E8DFDCDF80910002813301F582E088B9CC
:1002500087E59BDF85E499DF8CE497DF8CE495DF0D
:1002600083E493DF8FE491DF8DE48FDF85E48DDF1E
:100270002FEF83ED90E3215080409040E1F700C0E4
:10028000000080E38093000288B118B880910002DA
:100290008233C1F688B118B881E03EDF81E03CDFEF
:1002A00084E573DF82E571DF89E56FDF80E26DDF72
:1002B00081E46BDF87E469DF81E467DF89E465DF80
:1002C0008EE463DF81E028DF80E380930002BACF11
:1002D0001F920F920FB60F9211248F938091C60038
:1002E000809300028F910F900FBE0F901F90189572
:0402F000F894FFCFB0
:00000001FF
